{
  "abi": [
    {
      "type": "function",
      "name": "addEntry",
      "inputs": [
        {
          "name": "_content",
          "type": "string",
          "internalType": "string"
        }
      ],
      "outputs": [],
      "stateMutability": "nonpayable"
    },
    {
      "type": "function",
      "name": "entries",
      "inputs": [
        {
          "name": "",
          "type": "uint256",
          "internalType": "uint256"
        }
      ],
      "outputs": [
        {
          "name": "",
          "type": "string",
          "internalType": "string"
        }
      ],
      "stateMutability": "view"
    },
    {
      "type": "function",
      "name": "getAllEntries",
      "inputs": [],
      "outputs": [
        {
          "name": "",
          "type": "string[]",
          "internalType": "string[]"
        }
      ],
      "stateMutability": "view"
    },
    {
      "type": "function",
      "name": "userEntryCount",
      "inputs": [
        {
          "name": "",
          "type": "address",
          "internalType": "address"
        }
      ],
      "outputs": [
        {
          "name": "",
          "type": "uint256",
          "internalType": "uint256"
        }
      ],
      "stateMutability": "view"
    },
    {
      "type": "event",
      "name": "NewEntry",
      "inputs": [
        {
          "name": "author",
          "type": "address",
          "indexed": true,
          "internalType": "address"
        },
        {
          "name": "content",
          "type": "string",
          "indexed": false,
          "internalType": "string"
        },
        {
          "name": "timestamp",
          "type": "uint256",
          "indexed": false,
          "internalType": "uint256"
        }
      ],
      "anonymous": false
    }
  ],
  "bytecode": {
    "object": "0x6080604052348015600e575f5ffd5b50610bdc8061001c5f395ff3fe608060405234801561000f575f5ffd5b506004361061004a575f3560e01c806317ce42bd1461004e5780634a0364e81461006a578063b30906d414610088578063b64b5837146100b8575b5f5ffd5b610068600480360381019061006391906104db565b6100e8565b005b610072610201565b60405161007f919061063d565b60405180910390f35b6100a2600480360381019061009d9190610690565b6102d4565b6040516100af9190610703565b60405180910390f35b6100d260048036038101906100cd919061077d565b610379565b6040516100df91906107b7565b60405180910390f35b5f81511161012b576040517f08c379a00000000000000000000000000000000000000000000000000000000081526004016101229061081a565b60405180910390fd5b5f81908060018154018082558091505060019003905f5260205f20015f90919091909150908161015b9190610a35565b5060015f3373ffffffffffffffffffffffffffffffffffffffff1673ffffffffffffffffffffffffffffffffffffffff1681526020019081526020015f205f8154809291906101a990610b31565b91905055503373ffffffffffffffffffffffffffffffffffffffff167f32e3bbfe7e702497a147089913620d95f17cb5aed659e610355b14cb7f8ccfbb82426040516101f6929190610b78565b60405180910390a250565b60605f805480602002602001604051908101604052809291908181526020015f905b828210156102cb578382905f5260205f2001805461024090610865565b80601f016020809104026020016040519081016040528092919081815260200182805461026c90610865565b80156102b75780601f1061028e576101008083540402835291602001916102b7565b820191905f5260205f20905b81548152906001019060200180831161029a57829003601f168201915b505050505081526020019060010190610223565b50505050905090565b5f81815481106102e2575f80fd5b905f5260205f20015f9150905080546102fa90610865565b80601f016020809104026020016040519081016040528092919081815260200182805461032690610865565b80156103715780601f1061034857610100808354040283529160200191610371565b820191905f5260205f20905b81548152906001019060200180831161035457829003601f168201915b505050505081565b6001602052805f5260405f205f915090505481565b5f604051905090565b5f5ffd5b5f5ffd5b5f5ffd5b5f5ffd5b5f601f19601f8301169050919050565b7f4e487b71000000000000000000000000000000000000000000000000000000005f52604160045260245ffd5b6103ed826103a7565b810181811067ffffffffffffffff8211171561040c5761040b6103b7565b5b80604052505050565b5f61041e61038e565b905061042a82826103e4565b919050565b5f67ffffffffffffffff821115610449576104486103b7565b5b610452826103a7565b9050602081019050919050565b828183375f83830152505050565b5f61047f61047a8461042f565b610415565b90508281526020810184848401111561049b5761049a6103a3565b5b6104a684828561045f565b509392505050565b5f82601f8301126104c2576104c161039f565b5b81356104d284826020860161046d565b91505092915050565b5f602082840312156104f0576104ef610397565b5b5f82013567ffffffffffffffff81111561050d5761050c61039b565b5b610519848285016104ae565b91505092915050565b5f81519050919050565b5f82825260208201905092915050565b5f819050602082019050919050565b5f81519050919050565b5f82825260208201905092915050565b8281835e5f83830152505050565b5f61057d8261054b565b6105878185610555565b9350610597818560208601610565565b6105a0816103a7565b840191505092915050565b5f6105b68383610573565b905092915050565b5f602082019050919050565b5f6105d482610522565b6105de818561052c565b9350836020820285016105f08561053c565b805f5b8581101561062b578484038952815161060c85826105ab565b9450610617836105be565b925060208a019950506001810190506105f3565b50829750879550505050505092915050565b5f6020820190508181035f83015261065581846105ca565b905092915050565b5f819050919050565b61066f8161065d565b8114610679575f5ffd5b50565b5f8135905061068a81610666565b92915050565b5f602082840312156106a5576106a4610397565b5b5f6106b28482850161067c565b91505092915050565b5f82825260208201905092915050565b5f6106d58261054b565b6106df81856106bb565b93506106ef818560208601610565565b6106f8816103a7565b840191505092915050565b5f6020820190508181035f83015261071b81846106cb565b905092915050565b5f73ffffffffffffffffffffffffffffffffffffffff82169050919050565b5f61074c82610723565b9050919050565b61075c81610742565b8114610766575f5ffd5b50565b5f8135905061077781610753565b92915050565b5f6020828403121561079257610791610397565b5b5f61079f84828501610769565b91505092915050565b6107b18161065d565b82525050565b5f6020820190506107ca5f8301846107a8565b92915050565b7f456e7472792063616e6e6f7420626520656d7074792e000000000000000000005f82015250565b5f6108046016836106bb565b915061080f826107d0565b602082019050919050565b5f6020820190508181035f830152610831816107f8565b9050919050565b7f4e487b71000000000000000000000000000000000000000000000000000000005f52602260045260245ffd5b5f600282049050600182168061087c57607f821691505b60208210810361088f5761088e610838565b5b50919050565b5f819050815f5260205f209050919050565b5f6020601f8301049050919050565b5f82821b905092915050565b5f600883026108f17fffffffffffffffffffffffffffffffffffffffffffffffffffffffffffffffff826108b6565b6108fb86836108b6565b95508019841693508086168417925050509392505050565b5f819050919050565b5f61093661093161092c8461065d565b610913565b61065d565b9050919050565b5f819050919050565b61094f8361091c565b61096361095b8261093d565b8484546108c2565b825550505050565b5f5f905090565b61097a61096b565b610985818484610946565b505050565b5b818110156109a85761099d5f82610972565b60018101905061098b565b5050565b601f8211156109ed576109be81610895565b6109c7846108a7565b810160208510156109d6578190505b6109ea6109e2856108a7565b83018261098a565b50505b505050565b5f82821c905092915050565b5f610a0d5f19846008026109f2565b1980831691505092915050565b5f610a2583836109fe565b9150826002028217905092915050565b610a3e8261054b565b67ffffffffffffffff811115610a5757610a566103b7565b5b610a618254610865565b610a6c8282856109ac565b5f60209050601f831160018114610a9d575f8415610a8b578287015190505b610a958582610a1a565b865550610afc565b601f198416610aab86610895565b5f5b82811015610ad257848901518255600182019150602085019450602081019050610aad565b86831015610aef5784890151610aeb601f8916826109fe565b8355505b6001600288020188555050505b505050505050565b7f4e487b71000000000000000000000000000000000000000000000000000000005f52601160045260245ffd5b5f610b3b8261065d565b91507fffffffffffffffffffffffffffffffffffffffffffffffffffffffffffffffff8203610b6d57610b6c610b04565b5b600182019050919050565b5f6040820190508181035f830152610b9081856106cb565b9050610b9f60208301846107a8565b939250505056fea2646970667358221220314320b075bc6c7e2951f7b3cbf553aaa8300d8bd433accf0af4a968e1aff1ef64736f6c634300081e0033",
    "linkReferences": {}
  },
  "methodIdentifiers": {
    "addEntry(string)": "17ce42bd",
    "entries(uint256)": "b30906d4",
    "getAllEntries()": "4a0364e8",
    "userEntryCount(address)": "b64b5837"
  },
  "id": 19
}